{
  "contractName": "ShareSecret",
  "abi": [
    {
      "constant": true,
      "inputs": [
        {
          "name": "",
          "type": "uint256"
        }
      ],
      "name": "users",
      "outputs": [
        {
          "name": "value",
          "type": "uint256"
        },
        {
          "name": "depositFlag",
          "type": "bool"
        },
        {
          "name": "claimFlag",
          "type": "bool"
        },
        {
          "name": "refundFlag",
          "type": "bool"
        },
        {
          "name": "time",
          "type": "uint256"
        }
      ],
      "payable": false,
      "stateMutability": "view",
      "type": "function"
    },
    {
      "inputs": [
        {
          "name": "_all",
          "type": "uint256"
        }
      ],
      "payable": false,
      "stateMutability": "nonpayable",
      "type": "constructor"
    },
    {
      "constant": false,
      "inputs": [],
      "name": "sign",
      "outputs": [],
      "payable": false,
      "stateMutability": "nonpayable",
      "type": "function"
    },
    {
      "constant": false,
      "inputs": [],
      "name": "Deposit",
      "outputs": [],
      "payable": true,
      "stateMutability": "payable",
      "type": "function"
    },
    {
      "constant": false,
      "inputs": [
        {
          "name": "secret",
          "type": "bool"
        }
      ],
      "name": "Claim",
      "outputs": [
        {
          "name": "",
          "type": "bool"
        }
      ],
      "payable": false,
      "stateMutability": "nonpayable",
      "type": "function"
    },
    {
      "constant": false,
      "inputs": [],
      "name": "refund",
      "outputs": [],
      "payable": false,
      "stateMutability": "nonpayable",
      "type": "function"
    }
  ],
  "bytecode": "0x60806040526000600155600060025561271060035534801561002057600080fd5b50604051602080610f1b833981018060405281019080805190602001909291905050508060008190555050610ec18061005a6000396000f30060806040526004361061006d576000357c0100000000000000000000000000000000000000000000000000000000900463ffffffff1680632ca1512214610072578063365b98b214610089578063590e1ae3146100f2578063e60b362514610109578063ed21248c14610150575b600080fd5b34801561007e57600080fd5b5061008761015a565b005b34801561009557600080fd5b506100b46004803603810190808035906020019092919050505061035b565b604051808681526020018515151515815260200184151515158152602001831515151581526020018281526020019550505050505060405180910390f35b3480156100fe57600080fd5b506101076103c7565b005b34801561011557600080fd5b506101366004803603810190808035151590602001909291905050506106ea565b604051808215151515815260200191505060405180910390f35b610158610a8a565b005b60005460015410151561016c57600080fd5b60001515600460003373ffffffffffffffffffffffffffffffffffffffff1673ffffffffffffffffffffffffffffffffffffffff16815260200190815260200160002060010160009054906101000a900460ff1615151415156101ce57600080fd5b6001600460003373ffffffffffffffffffffffffffffffffffffffff1673ffffffffffffffffffffffffffffffffffffffff16815260200190815260200160002060010160006101000a81548160ff021916908315150217905550600154600460003373ffffffffffffffffffffffffffffffffffffffff1673ffffffffffffffffffffffffffffffffffffffff16815260200190815260200160002060000181905550600560a060405190810160405280600081526020016000151581526020016000151581526020016000151581526020016000815250908060018154018082558091505090600182039060005260206000209060030201600090919290919091506000820151816000015560208201518160010160006101000a81548160ff02191690831515021790555060408201518160010160016101000a81548160ff02191690831515021790555060608201518160010160026101000a81548160ff0219169083151502179055506080820151816002015550505060018060008282540192505081905550565b60058181548110151561036a57fe5b90600052602060002090600302016000915090508060000154908060010160009054906101000a900460ff16908060010160019054906101000a900460ff16908060010160029054906101000a900460ff16908060020154905085565b6000546002541415156103d957600080fd5b612710600354141515156103ec57600080fd5b600015156005600460003373ffffffffffffffffffffffffffffffffffffffff1673ffffffffffffffffffffffffffffffffffffffff1681526020019081526020016000206000015481548110151561044157fe5b906000526020600020906003020160010160029054906101000a900460ff16151514151561046e57600080fd5b600354600460003373ffffffffffffffffffffffffffffffffffffffff1673ffffffffffffffffffffffffffffffffffffffff168152602001908152602001600020600001541015610589573373ffffffffffffffffffffffffffffffffffffffff166108fc670de0b6b3a76400009081150290604051600060405180830381858888f19350505050158015610508573d6000803e3d6000fd5b5060016005600460003373ffffffffffffffffffffffffffffffffffffffff1673ffffffffffffffffffffffffffffffffffffffff1681526020019081526020016000206000015481548110151561055c57fe5b906000526020600020906003020160010160026101000a81548160ff0219169083151502179055506106e8565b600354600460003373ffffffffffffffffffffffffffffffffffffffff1673ffffffffffffffffffffffffffffffffffffffff1681526020019081526020016000206000015411156106e7573373ffffffffffffffffffffffffffffffffffffffff166108fc670de0b6b3a76400006001600460003373ffffffffffffffffffffffffffffffffffffffff1673ffffffffffffffffffffffffffffffffffffffff1681526020019081526020016000206000015401029081150290604051600060405180830381858888f1935050505015801561066a573d6000803e3d6000fd5b5060016005600460003373ffffffffffffffffffffffffffffffffffffffff1673ffffffffffffffffffffffffffffffffffffffff168152602001908152602001600020600001548154811015156106be57fe5b906000526020600020906003020160010160026101000a81548160ff0219169083151502179055505b5b565b6000806000546002541415156106ff57600080fd5b61271060035414151561071157600080fd5b600460003373ffffffffffffffffffffffffffffffffffffffff1673ffffffffffffffffffffffffffffffffffffffff168152602001908152602001600020600001549050600081148061079957506001151560056001830381548110151561077657fe5b906000526020600020906003020160010160019054906101000a900460ff161515145b15156107a457600080fd5b600015156005600460003373ffffffffffffffffffffffffffffffffffffffff1673ffffffffffffffffffffffffffffffffffffffff168152602001908152602001600020600001548154811015156107f957fe5b906000526020600020906003020160010160019054906101000a900460ff16151514151561082657600080fd5b6005600460003373ffffffffffffffffffffffffffffffffffffffff1673ffffffffffffffffffffffffffffffffffffffff1681526020019081526020016000206000015481548110151561087757fe5b906000526020600020906003020160020154421115801561089c575060011515831515145b156109bb5760016005600460003373ffffffffffffffffffffffffffffffffffffffff1673ffffffffffffffffffffffffffffffffffffffff168152602001908152602001600020600001548154811015156108f457fe5b906000526020600020906003020160010160016101000a81548160ff0219169083151502179055503373ffffffffffffffffffffffffffffffffffffffff166108fc670de0b6b3a76400006001600460003373ffffffffffffffffffffffffffffffffffffffff1673ffffffffffffffffffffffffffffffffffffffff1681526020019081526020016000206000015401029081150290604051600060405180830381858888f193505050501580156109b1573d6000803e3d6000fd5b5060019150610a84565b60006005600460003373ffffffffffffffffffffffffffffffffffffffff1673ffffffffffffffffffffffffffffffffffffffff16815260200190815260200160002060000154815481101515610a0e57fe5b906000526020600020906003020160010160016101000a81548160ff021916908315150217905550600460003373ffffffffffffffffffffffffffffffffffffffff1673ffffffffffffffffffffffffffffffffffffffff16815260200190815260200160002060000154600381905550600091505b50919050565b600054600154141515610a9c57600080fd5b600054600254101515610aae57600080fd5b600015156005600460003373ffffffffffffffffffffffffffffffffffffffff1673ffffffffffffffffffffffffffffffffffffffff16815260200190815260200160002060000154815481101515610b0357fe5b906000526020600020906003020160010160009054906101000a900460ff161515141515610b3057600080fd5b346005600460003373ffffffffffffffffffffffffffffffffffffffff1673ffffffffffffffffffffffffffffffffffffffff16815260200190815260200160002060000154815481101515610b8257fe5b906000526020600020906003020160000160008282540192505081905550670de0b6b3a76400006001600460003373ffffffffffffffffffffffffffffffffffffffff1673ffffffffffffffffffffffffffffffffffffffff1681526020019081526020016000206000015401026005600460003373ffffffffffffffffffffffffffffffffffffffff1673ffffffffffffffffffffffffffffffffffffffff16815260200190815260200160002060000154815481101515610c4157fe5b906000526020600020906003020160000154101515610e935760016005600460003373ffffffffffffffffffffffffffffffffffffffff1673ffffffffffffffffffffffffffffffffffffffff16815260200190815260200160002060000154815481101515610cad57fe5b906000526020600020906003020160010160006101000a81548160ff0219169083151502179055506001610708600460003373ffffffffffffffffffffffffffffffffffffffff1673ffffffffffffffffffffffffffffffffffffffff16815260200190815260200160002060000154010242016005600460003373ffffffffffffffffffffffffffffffffffffffff1673ffffffffffffffffffffffffffffffffffffffff16815260200190815260200160002060000154815481101515610d7257fe5b9060005260206000209060030201600201819055503373ffffffffffffffffffffffffffffffffffffffff166108fc670de0b6b3a76400006001600460003373ffffffffffffffffffffffffffffffffffffffff1673ffffffffffffffffffffffffffffffffffffffff1681526020019081526020016000206000015401026005600460003373ffffffffffffffffffffffffffffffffffffffff1673ffffffffffffffffffffffffffffffffffffffff16815260200190815260200160002060000154815481101515610e4257fe5b906000526020600020906003020160000154039081150290604051600060405180830381858888f19350505050158015610e80573d6000803e3d6000fd5b5060016002600082825401925050819055505b5600a165627a7a72305820d9a7bcdf51da51a479db6b91ed56ad8858d925834a185e86e8a7bbacac2a69680029",
  "source": "pragma solidity ^0.4.26;\r\n\r\n\r\ncontract ShareSecret{\r\n    \r\n\r\n    uint all;//总人数\r\n    uint signer=0;//当前报名人数\r\n    uint payer=0;//当前提交保证金人数\r\n    uint wrong=10000;//提交错误秘密值的用户编号\r\n    \r\n\r\n    struct User{\r\n        uint value;//已经存入的保证金\r\n        bool depositFlag;//是否提交保证金\r\n        bool claimFlag;//是否提交正确的秘密值\r\n        bool refundFlag;//是否退款\r\n        uint time;//记录签署方的截止时间\r\n    }\r\n\r\n    struct Id{\r\n        uint id;\r\n        bool signFlag;\r\n    }\r\n\r\n\r\n    // 地址到用户编号的映射（从1开始）\r\n    mapping (address=>Id) addr2Id;\r\n\r\n    User[] public users;\r\n\r\n    // 全部用户已注册\r\n    modifier allSigned() {\r\n      require (signer==all);\r\n         _;\r\n    }\r\n\r\n    // 全部用户尚未注册\r\n    modifier unAllSigned() {\r\n      require (signer<all);\r\n         _;\r\n    }\r\n\r\n    // 全部用户已提交保证金\r\n    modifier allDeposit() {\r\n      require (payer==all);\r\n         _;\r\n    }\r\n\r\n    // 全部用户尚未提交保证金\r\n    modifier unAllDeposit() {\r\n      require (payer<all);\r\n         _;\r\n    }\r\n\r\n\r\n\r\n\r\n    //确定本次交换秘密值总人数\r\n    constructor(uint _all) public {\r\n        all=_all;\r\n    }\r\n\r\n    //签署者获取对应的编号(从1开始，对应数组从0开始)\r\n    function sign() public unAllSigned{\r\n        require(addr2Id[msg.sender].signFlag==false);\r\n        addr2Id[msg.sender].signFlag=true;\r\n        addr2Id[msg.sender].id=signer;\r\n        users.push(User(0,false,false,false,0));\r\n        signer+=1;\r\n    }\r\n\r\n    //签署者缴纳保证金\r\n    function Deposit() public payable allSigned unAllDeposit{\r\n        //仅允许未缴纳保证金的用户缴纳保证金\r\n        require(users[addr2Id[msg.sender].id].depositFlag==false);\r\n        users[addr2Id[msg.sender].id].value+=msg.value;\r\n        //提交了满足要求的保证金\r\n        if (users[addr2Id[msg.sender].id].value>=(addr2Id[msg.sender].id+1)*1 ether){\r\n            users[addr2Id[msg.sender].id].depositFlag=true;\r\n            //分配截止时间\r\n            users[addr2Id[msg.sender].id].time=now+((addr2Id[msg.sender].id+1800)*1 seconds);\r\n            //找零\r\n            msg.sender.transfer(users[addr2Id[msg.sender].id].value-(addr2Id[msg.sender].id+1)*1 ether);            //gas 不变的情况下，transfer可防止重入攻击\r\n            payer+=1;\r\n        }        \r\n    }\r\n\r\n\r\n    //释放秘密值\r\n    function Claim(bool secret)public allDeposit returns(bool){\r\n        //无人提交错误秘密值\r\n        require(wrong==10000);\r\n        //只有之前序号的用户释放了秘密值才可进行\r\n        uint tmp=addr2Id[msg.sender].id;\r\n        require(tmp==0||users[tmp-1].claimFlag==true);\r\n        //仅能提交一次\r\n        require(users[addr2Id[msg.sender].id].claimFlag==false);\r\n        if(now<=users[addr2Id[msg.sender].id].time && secret==true){\r\n            users[addr2Id[msg.sender].id].claimFlag=true;\r\n            msg.sender.transfer((addr2Id[msg.sender].id+1)*1 ether);\r\n            return true;\r\n        }else{\r\n            //提交错误秘密值，记录编号\r\n            users[addr2Id[msg.sender].id].claimFlag=false;\r\n            wrong=addr2Id[msg.sender].id;\r\n            return false;\r\n        }\r\n    }\r\n\r\n\r\n\r\n\r\n    //拿回保证金\r\n    function refund()public allDeposit{\r\n        require(wrong!=10000);\r\n        require(users[addr2Id[msg.sender].id].refundFlag==false);\r\n        //在错误秘密值的用户之前的获得 1dB 奖励\r\n        if(addr2Id[msg.sender].id<wrong){\r\n            msg.sender.transfer(1 ether);\r\n            users[addr2Id[msg.sender].id].refundFlag=true;\r\n        //在错误秘密值的用户之后的退回保证金\r\n        }else if(addr2Id[msg.sender].id>wrong){\r\n            msg.sender.transfer((addr2Id[msg.sender].id+1)*1 ether);\r\n            users[addr2Id[msg.sender].id].refundFlag=true;\r\n        }\r\n    }\r\n    \r\n    \r\n}",
  "sourcePath": "D:/ethereum/sample/contracts/ShareSecret.sol",
  "compiler": {
    "name": "solc",
    "version": "0.4.26+commit.4563c3fc.Emscripten.clang"
  },
  "schemaVersion": "3.3.3",
  "updatedAt": "2021-07-10T08:41:12.817Z",
  "devdoc": {
    "methods": {}
  },
  "userdoc": {
    "methods": {}
  }
}